:100000000C942A000C9447000C9447000C94470071
:100010000C9447000C9447000C9447000C94470044
:100020000C9447000C9447000C9447000C94470034
:100030000C9447000C94F3190C9447000C9447005F
:100040000C9447000C9447000C9447000C94470014
:100050000C94470011241FBECFE5D8E0DEBFCDBF12
:1000600011E0A0E6B0E0ECEDFDE302C005900D92DA
:10007000A23BB107D9F711E0A2EBB1E001C01D929C
:10008000AF3BB107E1F70E9482160C94EC1E0C9472
:100090000000EF92FF920F931F937B018C0120E0F1
:1000A00030E040E05FE40E94F50388238CF0C80153
:1000B000B70120E030E040E05FE40E94C1010E940F
:1000C00055049B01AC01205030404040504806C0D0
:1000D000C801B7010E9455049B01AC01B901CA01D6
:1000E0001F910F91FF90EF900895A0E0B0E0EBE733
:1000F000F0E00C94841EDC012B01FA019C919230FB
:1001000008F439C1EB018881823008F433C194309E
:1001100069F4843009F02FC111969C91119789815F
:10012000981709F428C1A6EAB0E025C1843009F483
:1001300021C18230A9F4923009F01DC19A01AD01AC
:1001400088E0EA010990AE01E90109929E0181501F
:10015000C1F7E201898111969C918923818308C1AD
:10016000923009F407C112962D903C901397EB0141
:100170008A819B811496AD90BD90CD90DC901797AD
:10018000EC80FD800E811F819101281B390BB90184
:1001900037FF04C066277727621B730B6032710537
:1001A0000CF061C0121613066CF537014801062EDB
:1001B00004C096948794779467940A94D2F721E0C8
:1001C00030E040E050E004C0220F331F441F551FB1
:1001D0006A95D2F721503040404050402E213F21B7
:1001E00040235123211531054105510521F021E01E
:1001F00030E040E050E079018A01E628F72808293C
:1002000019293CC0232BD1F1260E371E350146019A
:10021000062E04C096948794779467940A94D2F734
:1002200021E030E040E050E004C0220F331F441FC3
:10023000551F6A95D2F721503040404050402A2146
:100240003B214C215D21211531054105510521F04E
:1002500021E030E040E050E059016A01A628B728CB
:10026000C828D9280BC0821593052CF01C01AA249C
:10027000BB24650103C0EE24FF24870111969C91E5
:10028000D20111968C91981709F445C0992339F041
:10029000A80197012A193B094C095D0906C0A6016E
:1002A00095012E193F09400B510B57FD08C01182D3
:1002B0003382228224833583468357831DC081E0A5
:1002C00081833382228288279927DC01821B930B4A
:1002D000A40BB50B84839583A683B7830DC0220F2F
:1002E000331F441F551F24833583468357838281E0
:1002F000938101979383828324813581468157813D
:10030000DA01C9010197A109B1098F5F9F4FAF4F72
:10031000BF4328F30BC0918333822282EA0CFB1C7B
:100320000C1D1D1DE482F5820683178383E0808304
:10033000248135814681578157FF1AC0C901AA27F8
:1003400097FDA095BA2F81709070A070B0705695EF
:10035000479537952795822B932BA42BB52B848318
:100360009583A683B7838281938101969383828349
:10037000DF0101C0D201CD01CDB7DEB7E2E10C94BF
:10038000A01EA0E2B0E0E7ECF1E00C94901E6983BF
:100390007A838B839C832D833E834F835887E9E048
:1003A000EE2EF12CEC0EFD1ECE010196B7010E943F
:1003B00046068E010F5E1F4FCE010596B8010E94C2
:1003C00046068A8991E089278A8BC701B801AE0168
:1003D000475E5F4F0E9475000E947105A096E6E09F
:1003E0000C94AC1EA0E2B0E0E8EFF1E00C94901E9B
:1003F00069837A838B839C832D833E834F835887C5
:10040000F9E0EF2EF12CEC0EFD1ECE010196B701A6
:100410000E9446068E010F5E1F4FCE010596B80161
:100420000E944606C701B801AE01475E5F4F0E94B9
:1004300075000E947105A096E6E00C94AC1EA0E247
:10044000B0E0E5E2F2E00C94841E69837A838B834A
:100450009C832D833E834F835887CE010196BE0136
:10046000675F7F4F0E944606CE010596BE016F5E14
:100470007F4F0E9446069985923088F089898230A4
:10048000C8F0943019F4823051F404C0843029F457
:10049000923081F486EA90E0C6C0923049F420E0C0
:1004A0009A858A89981321E02A87CE010996BBC0D4
:1004B000823049F420E09A858A89981321E02A8BBA
:1004C000CE014196B0C02D843E844F8458886D88FB
:1004D0007E888F88988CEE24FF248701AA24BB2471
:1004E000650140E050E060E070E0E0E0F0E0C10174
:1004F00081709070892BE9F0E60CF71C081D191D1E
:100500009A01AB012A0D3B1D4C1D5D1D80E090E062
:10051000A0E0B0E0E614F7040805190520F481E036
:1005200090E0A0E0B0E0BA01A901480F591F6A1F8E
:100530007B1FAA0CBB1CCC1CDD1C97FE08C081E0F5
:1005400090E0A0E0B0E0A82AB92ACA2ADB2A3196B6
:10055000E032F10549F0660C771C881C991C569412
:10056000479437942794C3CFFA85EA892B893C892D
:100570008B859C85280F391F2E5F3F4F17C0CA01FE
:1005800081709070892B61F016950795F794E79428
:1005900080E090E0A0E0B0E8E82AF92A0A2B1B2BC3
:1005A00076956795579547952F5F3F4F77FDE7CF36
:1005B0000CC0440F551F661F771F17FD4160EE0CDE
:1005C000FF1C001F111F21503040403090E05907A0
:1005D00090E0690790E4790760F32B8F3C8FDB0193
:1005E000CA018F779070A070B07080349105A1051A
:1005F000B10561F447FD0AC0E114F10401051105DC
:1006000029F0405C5F4F6F4F7F4F40781A8EFE1786
:1006100011F081E08A8F4D8F5E8F6F8F78A383E01A
:10062000898FCE0149960E947105A096E2E10C9453
:10063000A01EA8E1B0E0EFE1F3E00C948C1E69830A
:100640007A838B839C832D833E834F835887B9E0C5
:10065000EB2EF12CEC0EFD1ECE010196B7010E948F
:1006600046068E010F5E1F4FCE010596B8010E940F
:1006700046062985223008F47EC03989323010F4CC
:10068000B8017CC08A859A8989278A87243011F02D
:10069000223031F4231709F06EC066EA70E06EC0B4
:1006A000343039F41D861E861F86188A1C861B86E8
:1006B00004C0323021F484E08987B7015FC02B8504
:1006C0003C858B899C89281B390B3C872B87ED84C3
:1006D000FE840F851889AD88BE88CF88D88CEA142F
:1006E000FB040C051D0540F4EE0CFF1C001F111F40
:1006F000215030403C872B8720E030E040E050E044
:1007000080E090E0A0E0B0E460E070E0EA14FB0478
:100710000C051D0540F0282B392B4A2B5B2BEA18C2
:10072000FB080C091D09B695A79597958795EE0CC2
:10073000FF1C001F111F6F5F7F4F6F31710531F775
:10074000DA01C9018F779070A070B0708034910584
:10075000A105B10561F427FD0AC0E114F10401050A
:10076000110529F0205C3F4F4F4F5F4F20782D87B8
:100770003E874F87588BBE01675F7F4FCB010E943A
:1007800071056896EAE00C94A81EA8E1B0E0EBECD5
:10079000F3E00C94901E69837A838B839C832D8372
:1007A0003E834F83588789E0E82EF12CEC0EFD1E26
:1007B000CE010196B7010E9446068E010F5E1F4FC3
:1007C000CE010596B8010E9446068985823040F028
:1007D0008989823028F0C701B8010E94BE0601C095
:1007E0008FEF6896E6E00C94AC1EA8E1B0E0EBEF6A
:1007F000F3E00C94901E69837A838B839C832D8312
:100800003E834F83588789E0E82EF12CEC0EFD1EC5
:10081000CE010196B7010E9446068E010F5E1F4F62
:10082000CE010596B8010E9446068985823040F0C7
:100830008989823028F0C701B8010E94BE0601C034
:100840008FEF6896E6E00C94AC1EA8E1B0E0EBE216
:10085000F4E00C94901E69837A838B839C832D83B0
:100860003E834F83588789E0E82EF12CEC0EFD1E65
:10087000CE010196B7010E9446068E010F5E1F4F02
:10088000CE010596B8010E9446068985823040F067
:100890008989823028F0C701B8010E94BE0601C0D4
:1008A00081E06896E6E00C94AC1EACE0B0E0EBE5CD
:1008B000F4E00C94941E69837A838B839C83CE012D
:1008C0000196BE016B5F7F4F0E9446068D8182308C
:1008D00061F1823050F1843021F48E81882351F10E
:1008E0002EC02F81388537FD20C06E812F31310514
:1008F0001CF06623F9F023C08EE190E0821B930B7D
:1009000029853A854B855C8504C056954795379572
:1009100027958A95D2F76623B1F05095409530958A
:1009200021953F4F4F4F5F4F0EC020E030E040E039
:1009300050E009C02FEF3FEF4FEF5FE704C020E02A
:1009400030E040E050E8B901CA012C96E2E00C9496
:10095000B01EA8E0B0E0EFEAF4E00C948C1E7B013E
:100960008C01611571058105910519F482E0898377
:1009700060C083E089838EE1C82ED12CDC82CB82DB
:10098000ED82FE820F831887C801B7010E942205FD
:10099000FC013197F7FF3BC0222733272E1B3F0B6B
:1009A00057016801022E04C0D694C794B794A79447
:1009B0000A94D2F740E050E060E070E081E090E01F
:1009C000A0E0B0E004C0880F991FAA1FBB1F2A95A2
:1009D000D2F70197A109B1098E219F21A023B1234C
:1009E0000097A105B10521F041E050E060E070E022
:1009F0004A295B296C297D294D835E836F83788723
:100A00008EE190E08E1B9F0B9C838B8312C03097EE
:100A100081F00E2E04C0EE0CFF1C001F111F0A9463
:100A2000D2F7ED82FE820F831887CE1ADF0ADC82AE
:100A3000CB821A82CE0101960E9471052896EAE0C7
:100A40000C94A81EEF92FF920F931F937B018C01D1
:100A500080E0E81680E0F80681E0080780E01807EB
:100A600088F48FEFE816F1040105110531F028F044
:100A700088E090E0A0E0B0E017C080E090E0A0E067
:100A8000B0E012C080E0E81680E0F80680E00807D9
:100A900081E0180728F088E190E0A0E0B0E004C011
:100AA00080E190E0A0E0B0E020E230E040E050E003
:100AB000281B390B4A0B5B0B04C016950795F7945E
:100AC000E7948A95D2F7F701E255FF4F8081281B02
:100AD000310941095109C9011F910F91FF90EF9010
:100AE0000895DF92EF92FF920F931F93FC01E48031
:100AF000F58006811781D1808081823048F480E0C2
:100B000090E0A0E1B0E0E82AF92A0A2B1B2BA5C04F
:100B1000843009F49FC0823021F4EE24FF24870141
:100B200005C0E114F1040105110519F4E0E0F0E05D
:100B300096C0628173819FEF623879070CF05BC0C9
:100B400022E83FEF261B370B2A3131052CF020E03D
:100B500030E040E050E02AC0B801A701022E04C0F6
:100B600076956795579547950A94D2F781E090E07E
:100B7000A0E0B0E004C0880F991FAA1FBB1F2A95F0
:100B8000D2F70197A109B1098E219F21A023B1239A
:100B90000097A105B10521F081E090E0A0E0B0E070
:100BA0009A01AB01282B392B4A2B5B2BDA01C901A7
:100BB0008F779070A070B07080349105A105B10559
:100BC00039F427FF09C0205C3F4F4F4F5F4F04C0EF
:100BD000215C3F4F4F4F5F4FE0E0F0E02030A0E05E
:100BE0003A07A0E04A07A0E45A0710F0E1E0F0E07D
:100BF00079018A0127C06038710564F5FB01E1586D
:100C0000FF4FD801C7018F779070A070B07080340B
:100C10009105A105B10539F4E7FE0DC080E490E02F
:100C2000A0E0B0E004C08FE390E0A0E0B0E0E80E08
:100C3000F91E0A1F1B1F17FF05C016950795F7948D
:100C4000E794319687E016950795F794E7948A958F
:100C5000D1F705C0EE24FF248701EFEFF0E06E2FFF
:100C6000679566276795902F9F77D794DD24D79453
:100C70008E2F8695492F462B582F5D29B701CA0123
:100C80001F910F91FF90EF90DF900895FC01DB0121
:100C9000408151812281622F6F7770E0221F2227CD
:100CA000221F9381892F880F822B282F30E0991FD4
:100CB0009927991F11969C93119721153105A9F534
:100CC000411551056105710511F482E037C082E8D4
:100CD0009FEF13969C938E9312979A01AB0167E056
:100CE000220F331F441F551F6A95D1F783E08C9361
:100CF0000DC0220F331F441F551F12968D919C91DA
:100D00001397019713969C938E931297203080E04F
:100D1000380780E0480780E4580758F314962D936D
:100D20003D934D935C93179708952F3F310579F4C8
:100D3000411551056105710519F484E08C930895FE
:100D400064FF03C081E08C9312C01C9210C02F5727
:100D5000304013963C932E93129783E08C9387E058
:100D6000440F551F661F771F8A95D1F7706414963C
:100D70004D935D936D937C93179708951F93DC01BA
:100D8000FB019C91923008F447C08081823008F4C6
:100D900043C0943051F411961C91843099F58181AF
:100DA000682F70E0611B71093FC0843021F09230E0
:100DB00031F48230B9F18181882389F12DC01196F7
:100DC0001C9111978230F1F081811817D9F4129695
:100DD0002D913C911397828193818217930794F010
:100DE00028173907BCF014968D919D910D90BC91F8
:100DF000A02D2481358146815781281739074A075C
:100E00005B0718F4112341F00AC082179307A40767
:100E1000B50740F4112319F061E070E005C06FEFF1
:100E20007FEF02C060E070E0CB011F910895DF9377
:100E3000CF93CDB7DEB76D970FB6F894DEBF0FBE78
:100E4000CDBF8D8F82E065E040E00E94B51C82E05E
:100E500066E040E00E94B51C82E067E041E00E944D
:100E6000B51C80E090E0A0E0B0E4898F9A8FAB8F52
:100E7000BC8F698D7A8D8B8D9C8D20E030E04AEFA0
:100E800054E40E941F02DC01CB018D8B9E8BAF8B43
:100E9000B88F6D897E898F89988D20E030E040E899
:100EA0005FE30E94250488232CF481E090E09C8B72
:100EB0008B8B3FC06D897E898F89988D20E03FEFB5
:100EC0004FE757E40E94C50318164CF5698D7A8DDB
:100ED0008B8D9C8D20E030E040E251E40E941F02A7
:100EE000DC01CB01BC01CD010E944900DC01CB013A
:100EF0009C8B8B8B0FC088EC90E09A8B898B8989B7
:100F00009A890197F1F79A8B898B8B899C89019734
:100F10009C8B8B8B8B899C89009769F714C06D899A
:100F20007E898F89988D0E944900DC01CB019C8BC2
:100F30008B8B8B899C89988B8F878F85988901975C
:100F4000F1F7988B8F8782E06D8D0E946C1B82E099
:100F500067E040E00E94B51C80E090E0A0E0B0E4D3
:100F60008B879C87AD87BE876B857C858D859E85AD
:100F700020E030E04AEF54E40E941F02DC01CB0184
:100F80008F839887A987BA876F81788589859A85A5
:100F900020E030E040E85FE30E94250488232CF441
:100FA00081E090E09E838D833FC06F817885898545
:100FB0009A8520E03FEF4FE757E40E94C5031816DB
:100FC0004CF56B857C858D859E8520E030E040E288
:100FD00051E40E941F02DC01CB01BC01CD010E9443
:100FE0004900DC01CB019E838D830FC088EC90E02B
:100FF0009C838B838B819C810197F1F79C838B83EE
:101000008D819E8101979E838D838D819E81009726
:1010100069F714C06F81788589859A850E94490097
:10102000DC01CB019E838D838D819E819A83898390
:1010300089819A810197F1F79A83898382E067E039
:1010400041E00E94B51C6D960FB6F894DEBF0FBE4E
:10105000CDBFCF91DF910895DF93CF93CDB7DEB7AA
:101060002F970FB6F894DEBF0FBECDBF8F8782E0FB
:1010700065E041E00E94B51C82E066E040E00E942D
:10108000B51C82E067E041E00E94B51C82E06F85FC
:101090000E946C1B82E067E040E00E94B51C80E08B
:1010A00090E0A0E0B0E48B879C87AD87BE876B851E
:1010B0007C858D859E8520E030E04AEF54E40E94D7
:1010C0001F02DC01CB018F839887A987BA876F81C4
:1010D000788589859A8520E030E040E85FE30E94CA
:1010E000250488232CF481E090E09E838D833FC00B
:1010F0006F81788589859A8520E03FEF4FE757E437
:101100000E94C50318164CF56B857C858D859E85E0
:1011100020E030E040E251E40E941F02DC01CB01FC
:10112000BC01CD010E944900DC01CB019E838D836F
:101130000FC088EC90E09C838B838B819C8101970E
:10114000F1F79C838B838D819E8101979E838D8394
:101150008D819E81009769F714C06F81788589859C
:101160009A850E944900DC01CB019E838D838D818D
:101170009E819A83898389819A810197F1F79A8365
:10118000898382E067E041E00E94B51C2F960FB68C
:10119000F894DEBF0FBECDBFCF91DF910895DF93EE
:1011A000CF93CDB7DEB7E8970FB6F894DEBF0FBE8A
:1011B000CDBF82E065E041E00E94AD1B82E066E0C9
:1011C00041E00E94AD1B82E067E041E00E94AD1B60
:1011D00082E061E00E94F31A80E090E0A0EFB1E4C9
:1011E0008DAB9EABAFABB8AF6DA97EA98FA998AD03
:1011F00020E030E04AEF54E40E941F02DC01CB0102
:1012000089AB9AABABABBCAB69A97AA98BA99CA9FA
:1012100020E030E040E85FE30E94250488232CF4BE
:1012200081E090E098AB8FA73FC069A97AA98BA90C
:101230009CA920E03FEF4FE757E40E94C503181632
:101240004CF56DA97EA98FA998AD20E030E040E271
:1012500051E40E941F02DC01CB01BC01CD010E94C0
:101260004900DC01CB0198AB8FA70FC088EC90E060
:101270009EA78DA78DA59EA50197F1F79EA78DA787
:101280008FA598A9019798AB8FA78FA598A90097CC
:1012900069F714C069A97AA98BA99CA90E94490081
:1012A000DC01CB0198AB8FA78FA598A99CA78BA732
:1012B0008BA59CA50197F1F79CA78BA788E30E94BB
:1012C000170780E090E0A0E0B0E48FA398A7A9A75B
:1012D000BAA76FA178A589A59AA520E030E04AEFCA
:1012E00054E40E941F02DC01CB018BA39CA3ADA39D
:1012F000BEA36BA17CA18DA19EA120E030E040E8BF
:101300005FE30E94250488232CF481E090E09AA3F7
:1013100089A33FC06BA17CA18DA19EA120E03FEFDE
:101320004FE757E40E94C50318164CF56FA178A546
:1013300089A59AA520E030E040E251E40E941F0216
:10134000DC01CB01BC01CD010E944900DC01CB01D5
:101350009AA389A30FC088EC90E098A38F8F8F8DFC
:1013600098A10197F1F798A38F8F89A19AA101976E
:101370009AA389A389A19AA1009769F714C06BA1C8
:101380007CA18DA19EA10E944900DC01CB019AA302
:1013900089A389A19AA19E8F8D8F8D8D9E8D019796
:1013A000F1F79E8F8D8F8EE00E94170780E090E00E
:1013B000A0E0B0E4898F9A8FAB8FBC8F698D7A8D56
:1013C0008B8D9C8D20E030E04AEF54E40E941F0298
:1013D000DC01CB018D8B9E8BAF8BB88F6D897E89A5
:1013E0008F89988D20E030E040E85FE30E9425047B
:1013F00088232CF481E090E09C8B8B8B3FC06D891F
:101400007E898F89988D20E03FEF4FE757E40E9457
:10141000C50318164CF5698D7A8D8B8D9C8D20E057
:1014200030E040E251E40E941F02DC01CB01BC012C
:10143000CD010E944900DC01CB019C8B8B8B0FC03E
:1014400088EC90E09A8B898B89899A890197F1F7CA
:101450009A8B898B8B899C8901979C8B8B8B8B8931
:101460009C89009769F714C06D897E898F89988D52
:101470000E944900DC01CB019C8B8B8B8B899C8962
:10148000988B8F878F8598890197F1F7988B8F8735
:1014900081E00E94170780E090E0A0E0B0E48B8735
:1014A0009C87AD87BE876B857C858D859E8520E07A
:1014B00030E04AEF54E40E941F02DC01CB018F832D
:1014C0009887A987BA876F81788589859A8520E072
:1014D00030E040E85FE30E94250488232CF481E09B
:1014E00090E09E838D833FC06F81788589859A8542
:1014F00020E03FEF4FE757E40E94C50318164CF574
:101500006B857C858D859E8520E030E040E251E44E
:101510000E941F02DC01CB01BC01CD010E944900E9
:10152000DC01CB019E838D830FC088EC90E09C830F
:101530008B838B819C810197F1F79C838B838D81B9
:101540009E8101979E838D838D819E81009769F78F
:1015500014C06F81788589859A850E944900DC01D5
:10156000CB019E838D838D819E819A83898389811E
:101570009A810197F1F79A83898386E00E94170781
:10158000E8960FB6F894DEBF0FBECDBFCF91DF91C6
:1015900008950F931F93DF93CF93CDB7DEB7C75551
:1015A000D0400FB6F894DEBF0FBECDBFFE01E95AA2
:1015B000FF4F808382E065E040E00E94B51C82E03E
:1015C00066E040E00E94B51CDE01AB5ABF4FFE0151
:1015D000E95AFF4F8081882F90E08D939C93DE0124
:1015E000AB5ABF4FFE01EB5AFF4F80819181807F44
:1015F00090708D939C93FE01EB5AFF4F80818093F6
:10160000B2018091B20182958F708170982F82E033
:1016100060E0492F0E94B51C8091B20182958695A9
:1016200087708170982F82E061E0492F0E94B51C7D
:101630008091B20182958695869583708170982FEE
:1016400082E062E0492F0E94B51C8091B201881FA0
:101650008827881F982F82E063E0492F0E94B51CDD
:1016600082E067E041E00E94B51CFE01EF5AFF4FA7
:1016700080E090E0A0E0B0E480839183A283B38314
:101680008E01035B1F4FFE01EF5AFF4F6081718196
:101690008281938120E030E04AEF54E40E941F02EF
:1016A000DC01CB01F80180839183A283B383FE0127
:1016B000E35BFF4F608171818281938120E030E0A4
:1016C00040E85FE30E942504882344F4FE01E55BC3
:1016D000FF4F81E090E09183808364C0FE01E35B73
:1016E000FF4F608171818281938120E03FEF4FE75E
:1016F00057E40E94C50318160CF043C0FE01EF5AD0
:10170000FF4F608171818281938120E030E040E26F
:1017100051E40E941F02DC01CB018E01055B1F4FCB
:10172000BC01CD010E944900DC01CB01F80191838D
:1017300080831FC0FE01E75BFF4F88EC90E0918340
:101740008083FE01E75BFF4F808191810197F1F774
:10175000FE01E75BFF4F91838083DE01A55BBF4FF6
:10176000FE01E55BFF4F80819181019711969C936B
:101770008E93FE01E55BFF4F808191810097D1F64A
:1017800027C08E01055B1F4FFE01E35BFF4F6081A9
:101790007181828193810E944900DC01CB01F801B3
:1017A00091838083DE01A95BBF4FFE01E55BFF4FA4
:1017B000808191818D939C93FE01E95BFF4F808135
:1017C00091810197F1F7FE01E95BFF4F91838083DF
:1017D00082E067E040E00E94B51CFE01ED5BFF4F38
:1017E00080E090E0A0E0B0E480839183A283B383A3
:1017F0008E01015C1F4FFE01ED5BFF4F6081718127
:101800008281938120E030E04AEF54E40E941F027D
:10181000DC01CB01F80180839183A283B383FE01B5
:10182000FF96608171818281938120E030E040E801
:101830005FE30E94250488232CF481E090E09EAFB2
:101840008DAF46C0FE01FF966081718182819381D8
:1018500020E03FEF4FE757E40E94C503181664F5F8
:10186000FE01ED5BFF4F608171818281938120E0F9
:1018700030E040E251E40E941F02DC01CB01BC01D8
:10188000CD010E944900DC01CB019EAF8DAF0FC09E
:1018900088EC90E09CAF8BAF8BAD9CAD0197F1F7DE
:1018A0009CAF8BAF8DAD9EAD01979EAF8DAF8DADD3
:1018B0009EAD009769F716C0FE01FF9660817181A9
:1018C000828193810E944900DC01CB019EAF8DAFE4
:1018D0008DAD9EAD9AAF89AF89AD9AAD0197F1F705
:1018E0009AAF89AF82E067E041E00E94B51CFE013B
:1018F000EB5AFF4F80818093B2018091B2018295B3
:101900008F708170982F82E060E0492F0E94B51C93
:101910008091B2018295869587708170982F82E0C0
:1019200061E0492F0E94B51C8091B2018295869595
:10193000869583708170982F82E062E0492F0E9423
:10194000B51C8091B201881F8827881F982F82E0DC
:1019500063E0492F0E94B51C82E067E041E00E94ED
:10196000B51C80E090E0A0E0B0E48DAB9EABAFABE7
:10197000B8AF6DA97EA98FA998AD20E030E04AEFFD
:1019800054E40E941F02DC01CB0189AB9AABABABE4
:10199000BCAB69A97AA98BA99CA920E030E040E8FA
:1019A0005FE30E94250488232CF481E090E098AB4B
:1019B0008FA73FC069A97AA98BA99CA920E03FEF16
:1019C0004FE757E40E94C50318164CF56DA97EA990
:1019D0008FA998AD20E030E040E251E40E941F0260
:1019E000DC01CB01BC01CD010E944900DC01CB012F
:1019F00098AB8FA70FC088EC90E09EA78DA78DA510
:101A00009EA50197F1F79EA78DA78FA598A901978D
:101A100098AB8FA78FA598A9009769F714C069A9FB
:101A20007AA98BA99CA90E944900DC01CB0198AB43
:101A30008FA78FA598A99CA78BA78BA59CA501977D
:101A4000F1F79CA78BA782E067E040E00E94B51CFD
:101A500080E090E0A0E0B0E48FA398A7A9A7BAA780
:101A60006FA178A589A59AA520E030E04AEF54E45B
:101A70000E941F02DC01CB018BA39CA3ADA3BEA3DC
:101A80006BA17CA18DA19EA120E030E040E85FE346
:101A90000E94250488232CF481E090E09AA389A376
:101AA0003FC06BA17CA18DA19EA120E03FEF4FE73D
:101AB00057E40E94C50318164CF56FA178A589A5B7
:101AC0009AA520E030E040E251E40E941F02DC01D0
:101AD000CB01BC01CD010E944900DC01CB019AA3DE
:101AE00089A30FC088EC90E098A38F8F8F8D98A169
:101AF0000197F1F798A38F8F89A19AA101979AA3D3
:101B000089A389A19AA1009769F714C06BA17CA150
:101B10008DA19EA10E944900DC01CB019AA389A35B
:101B200089A19AA19E8F8D8F8D8D9E8D0197F1F742
:101B30009E8F8D8F82E067E041E00E94B51CFE0120
:101B4000E95AFF4F8081882F90E0FE01EB5AFF4F4A
:101B500082959295907F9827807F982791838083A4
:101B6000DE01AB5ABF4FFE01EB5AFF4F80819181DE
:101B7000807F90708D939C93FE01EB5AFF4F808184
:101B80008093B2018091B20182958F708170982FFD
:101B900082E060E0492F0E94B51C8091B2018295DD
:101BA000869587708170982F82E061E0492F0E94AE
:101BB000B51C8091B201829586958695837081705F
:101BC000982F82E062E0492F0E94B51C8091B201FB
:101BD000881F8827881F982F82E063E0492F0E9482
:101BE000B51C82E067E041E00E94B51C80E090E017
:101BF000A0E0B0E4898F9A8FAB8FBC8F698D7A8D0E
:101C00008B8D9C8D20E030E04AEF54E40E941F024F
:101C1000DC01CB018D8B9E8BAF8BB88F6D897E895C
:101C20008F89988D20E030E040E85FE30E94250432
:101C300088232CF481E090E09C8B8B8B3FC06D89D6
:101C40007E898F89988D20E03FEF4FE757E40E940F
:101C5000C50318164CF5698D7A8D8B8D9C8D20E00F
:101C600030E040E251E40E941F02DC01CB01BC01E4
:101C7000CD010E944900DC01CB019C8B8B8B0FC0F6
:101C800088EC90E09A8B898B89899A890197F1F782
:101C90009A8B898B8B899C8901979C8B8B8B8B89E9
:101CA0009C89009769F714C06D897E898F89988D0A
:101CB0000E944900DC01CB019C8B8B8B8B899C891A
:101CC000988B8F878F8598890197F1F7988B8F87ED
:101CD00082E067E040E00E94B51C80E090E0A0E078
:101CE000B0E48B879C87AD87BE876B857C858D85AF
:101CF0009E8520E030E04AEF54E40E941F02DC01A0
:101D0000CB018F839887A987BA876F81788589856A
:101D10009A8520E030E040E85FE30E9425048823B4
:101D20002CF481E090E09E838D833FC06F817885A5
:101D300089859A8520E03FEF4FE757E40E94C5036D
:101D400018164CF56B857C858D859E8520E030E0EE
:101D500040E251E40E941F02DC01CB01BC01CD0135
:101D60000E944900DC01CB019E838D830FC088EC6B
:101D700090E09C838B838B819C810197F1F79C83FE
:101D80008B838D819E8101979E838D838D819E8122
:101D9000009769F714C06F81788589859A850E94BC
:101DA0004900DC01CB019E838D838D819E819A83C6
:101DB000898389819A810197F1F79A83898382E0E7
:101DC00067E041E00E94B51CC95ADF4F0FB6F89496
:101DD000DEBF0FBECDBFCF91DF911F910F91089550
:101DE000DF93CF93CDB7DEB7EB970FB6F894DEBF96
:101DF0000FBECDBF8BAF82E065E040E00E94B51C16
:101E000082E066E040E00E94B51C8BAD882F90E038
:101E10009AAF89AF89AD9AAD807F90709AAF89AF44
:101E200089AD8093B2018091B20182958F708170EB
:101E3000982F82E060E0492F0E94B51C8091B2018A
:101E40008295869587708170982F82E061E0492F96
:101E50000E94B51C8091B20182958695869583700B
:101E60008170982F82E062E0492F0E94B51C80911A
:101E7000B201881F8827881F982F82E063E0492FCE
:101E80000E94B51C82E067E041E00E94B51C80E042
:101E900090E0A0E0B0E48DAB9EABAFABB8AF6DA966
:101EA0007EA98FA998AD20E030E04AEF54E40E946B
:101EB0001F02DC01CB0189AB9AABABABBCAB69A910
:101EC0007AA98BA99CA920E030E040E85FE30E945A
:101ED000250488232CF481E090E098AB8FA73FC0C5
:101EE00069A97AA98BA99CA920E03FEF4FE757E4A5
:101EF0000E94C50318164CF56DA97EA98FA998AD4F
:101F000020E030E040E251E40E941F02DC01CB01FE
:101F1000BC01CD010E944900DC01CB0198AB8FA729
:101F20000FC088EC90E09EA78DA78DA59EA5019778
:101F3000F1F79EA78DA78FA598A9019798AB8FA7BA
:101F40008FA598A9009769F714C069A97AA98BA9E8
:101F50009CA90E944900DC01CB0198AB8FA78FA5FB
:101F600098A99CA78BA78BA59CA50197F1F79CA787
:101F70008BA782E067E040E00E94B51C80E090E023
:101F8000A0E0B0E48FA398A7A9A7BAA76FA178A5EE
:101F900089A59AA520E030E04AEF54E40E941F0290
:101FA000DC01CB018BA39CA3ADA3BEA36BA17CA141
:101FB0008DA19EA120E030E040E85FE30E9425046F
:101FC00088232CF481E090E09AA389A33FC06BA101
:101FD0007CA18DA19EA120E03FEF4FE757E40E9436
:101FE000C50318164CF56FA178A589A59AA520E020
:101FF00030E040E251E40E941F02DC01CB01BC0151
:10200000CD010E944900DC01CB019AA389A30FC036
:1020100088EC90E098A38F8F8F8D98A10197F1F7AE
:1020200098A38F8F89A19AA101979AA389A389A1C7
:102030009AA1009769F714C06BA17CA18DA19EA104
:102040000E944900DC01CB019AA389A389A19AA12E
:102050009E8F8D8F8D8D9E8D0197F1F79E8F8D8F29
:1020600082E067E041E00E94B51C8BAD882F90E0D4
:1020700082959295907F9827807F98279AAF89AF15
:1020800089AD9AAD807F90709AAF89AF89AD80930A
:10209000B2018091B20182958F708170982F82E099
:1020A00060E0492F0E94B51C8091B201829586950F
:1020B00087708170982F82E061E0492F0E94B51CE3
:1020C0008091B20182958695869583708170982F54
:1020D00082E062E0492F0E94B51C8091B201881F06
:1020E0008827881F982F82E063E0492F0E94B51C43
:1020F00082E067E041E00E94B51C80E090E0A0E053
:10210000B0E4898F9A8FAB8FBC8F698D7A8D8B8D60
:102110009C8D20E030E04AEF54E40E941F02DC0175
:10212000CB018D8B9E8BAF8BB88F6D897E898F890C
:10213000988D20E030E040E85FE30E94250488238A
:102140002CF481E090E09C8B8B8B3FC06D897E8965
:102150008F89988D20E03FEF4FE757E40E94C50339
:1021600018164CF5698D7A8D8B8D9C8D20E030E0B2
:1021700040E251E40E941F02DC01CB01BC01CD0111
:102180000E944900DC01CB019C8B8B8B0FC088EC3B
:1021900090E09A8B898B89899A890197F1F79A8BBC
:1021A000898B8B899C8901979C8B8B8B8B899C89D4
:1021B000009769F714C06D897E898F89988D0E9478
:1021C0004900DC01CB019C8B8B8B8B899C89988B84
:1021D0008F878F8598890197F1F7988B8F8782E099
:1021E00067E040E00E94B51C80E090E0A0E0B0E431
:1021F0008B879C87AD87BE876B857C858D859E850B
:1022000020E030E04AEF54E40E941F02DC01CB01E1
:102210008F839887A987BA876F81788589859A8502
:1022200020E030E040E85FE30E94250488232CF49E
:1022300081E090E09E838D833FC06F8178858985A2
:102240009A8520E03FEF4FE757E40E94C503181638
:102250004CF56B857C858D859E8520E030E040E2E5
:1022600051E40E941F02DC01CB01BC01CD010E94A0
:102270004900DC01CB019E838D830FC088EC90E088
:102280009C838B838B819C810197F1F79C838B834B
:102290008D819E8101979E838D838D819E81009784
:1022A00069F714C06F81788589859A850E944900F5
:1022B000DC01CB019E838D838D819E819A838983EE
:1022C00089819A810197F1F79A83898382E067E097
:1022D00041E00E94B51CEB960FB6F894DEBF0FBE2E
:1022E000CDBFCF91DF910895DF93CF93CDB7DEB708
:1022F0006F970FB6F894DEBF0FBECDBF8F8F82E011
:1023000065E041E00E94B51C82E066E040E00E948A
:10231000B51C82E067E041E00E94B51C8F8D882FDC
:1023200090E09E8F8D8F8D8D9E8D807F90709E8F83
:102330008D8F8D8D8093B2018091B20182958F70C7
:102340008170982F82E060E0492F0E94B51C809137
:10235000B2018295869587708170982F82E061E046
:10236000492F0E94B51C8091B20182958695869571
:1023700083708170982F82E062E0492F0E94B51C23
:102380008091B201881F8827881F982F82E063E020
:10239000492F0E94B51C82E067E040E00E94B51C16
:1023A00080E090E0A0E0B0E4898F9A8FAB8FBC8F83
:1023B000698D7A8D8B8D9C8D20E030E04AEF54E45E
:1023C0000E941F02DC01CB018D8B9E8BAF8BB88FDF
:1023D0006D897E898F89988D20E030E040E85FE349
:1023E0000E94250488232CF481E090E09C8B8B8B49
:1023F0003FC06D897E898F89988D20E03FEF4FE740
:1024000057E40E94C50318164CF5698D7A8D8B8DA3
:102410009C8D20E030E040E251E40E941F02DC018C
:10242000CB01BC01CD010E944900DC01CB019C8B9A
:102430008B8B0FC088EC90E09A8B898B89899A8965
:102440000197F1F79A8B898B8B899C8901979C8BDB
:102450008B8B8B899C89009769F714C06D897E8965
:102460008F89988D0E944900DC01CB019C8B8B8B5E
:102470008B899C89988B8F878F8598890197F1F735
:10248000988B8F8782E067E041E00E94B51C8F8DBA
:10249000882F90E082959295907F9827807F98274B
:1024A0009E8F8D8F8D8D9E8D807F90709E8F8D8F56
:1024B0008D8D8093B2018091B20182958F70817071
:1024C000982F82E060E0492F0E94B51C8091B201F4
:1024D0008295869587708170982F82E061E0492F00
:1024E0000E94B51C8091B201829586958695837075
:1024F0008170982F82E062E0492F0E94B51C809184
:10250000B201881F8827881F982F82E063E0492F37
:102510000E94B51C82E067E040E00E94B51C80E0AC
:1025200090E0A0E0B0E48B879C87AD87BE876B8589
:102530007C858D859E8520E030E04AEF54E40E9442
:102540001F02DC01CB018F839887A987BA876F812F
:10255000788589859A8520E030E040E85FE30E9435
:10256000250488232CF481E090E09E838D833FC076
:102570006F81788589859A8520E03FEF4FE757E4A2
:102580000E94C50318164CF56B857C858D859E854C
:1025900020E030E040E251E40E941F02DC01CB0168
:1025A000BC01CD010E944900DC01CB019E838D83DB
:1025B0000FC088EC90E09C838B838B819C8101977A
:1025C000F1F79C838B838D819E8101979E838D8300
:1025D0008D819E81009769F714C06F817885898508
:1025E0009A850E944900DC01CB019E838D838D81F9
:1025F0009E819A83898389819A810197F1F79A83D1
:10260000898382E067E041E00E94B51C6F960FB6B7
:10261000F894DEBF0FBECDBFCF91DF910895DF9359
:10262000CF93CDB7DEB7E8970FB6F894DEBF0FBEF5
:10263000CDBF82E065E041E00E94AD1B82E066E034
:1026400041E00E94AD1B82E067E041E00E94AD1BCB
:1026500082E060E041E00E94AD1B82E061E041E089
:102660000E94AD1B82E062E041E00E94AD1B82E06F
:1026700063E041E00E94AD1B80E090E0A0EFB1E498
:102680008DAB9EABAFABB8AF6DA97EA98FA998AD4E
:1026900020E030E04AEF54E40E941F02DC01CB014D
:1026A00089AB9AABABABBCAB69A97AA98BA99CA946
:1026B00020E030E040E85FE30E94250488232CF40A
:1026C00081E090E098AB8FA73FC069A97AA98BA958
:1026D0009CA920E03FEF4FE757E40E94C50318167E
:1026E0004CF56DA97EA98FA998AD20E030E040E2BD
:1026F00051E40E941F02DC01CB01BC01CD010E940C
:102700004900DC01CB0198AB8FA70FC088EC90E0AB
:102710009EA78DA78DA59EA50197F1F79EA78DA7D2
:102720008FA598A9019798AB8FA78FA598A9009717
:1027300069F714C069A97AA98BA99CA90E944900CC
:10274000DC01CB0198AB8FA78FA598A99CA78BA77D
:102750008BA59CA50197F1F79CA78BA78CE20E9403
:10276000C90A80E090E0A0E0B0E48FA398A7A9A7F1
:10277000BAA76FA178A589A59AA520E030E04AEF15
:1027800054E40E941F02DC01CB018BA39CA3ADA3E8
:10279000BEA36BA17CA18DA19EA120E030E040E80A
:1027A0005FE30E94250488232CF481E090E09AA343
:1027B00089A33FC06BA17CA18DA19EA120E03FEF2A
:1027C0004FE757E40E94C50318164CF56FA178A592
:1027D00089A59AA520E030E040E251E40E941F0262
:1027E000DC01CB01BC01CD010E944900DC01CB0121
:1027F0009AA389A30FC088EC90E098A38F8F8F8D48
:1028000098A10197F1F798A38F8F89A19AA10197B9
:102810009AA389A389A19AA1009769F714C06BA113
:102820007CA18DA19EA10E944900DC01CB019AA34D
:1028300089A389A19AA19E8F8D8F8D8D9E8D0197E1
:10284000F1F79E8F8D8F8EE00E94F00E80E090E079
:10285000A0E0B0E4898F9A8FAB8FBC8F698D7A8DA1
:102860008B8D9C8D20E030E04AEF54E40E941F02E3
:10287000DC01CB018D8B9E8BAF8BB88F6D897E89F0
:102880008F89988D20E030E040E85FE30E942504C6
:1028900088232CF481E090E09C8B8B8B3FC06D896A
:1028A0007E898F89988D20E03FEF4FE757E40E94A3
:1028B000C50318164CF5698D7A8D8B8D9C8D20E0A3
:1028C00030E040E251E40E941F02DC01CB01BC0178
:1028D000CD010E944900DC01CB019C8B8B8B0FC08A
:1028E00088EC90E09A8B898B89899A890197F1F716
:1028F0009A8B898B8B899C8901979C8B8B8B8B897D
:102900009C89009769F714C06D897E898F89988D9D
:102910000E944900DC01CB019C8B8B8B8B899C89AD
:10292000988B8F878F8598890197F1F7988B8F8780
:1029300081E00E94F00E80E090E0A0E0B0E48B87A0
:102940009C87AD87BE876B857C858D859E8520E0C5
:1029500030E04AEF54E40E941F02DC01CB018F8378
:102960009887A987BA876F81788589859A8520E0BD
:1029700030E040E85FE30E94250488232CF481E0E6
:1029800090E09E838D833FC06F81788589859A858D
:1029900020E03FEF4FE757E40E94C50318164CF5BF
:1029A0006B857C858D859E8520E030E040E251E49A
:1029B0000E941F02DC01CB01BC01CD010E94490035
:1029C000DC01CB019E838D830FC088EC90E09C835B
:1029D0008B838B819C810197F1F79C838B838D8105
:1029E0009E8101979E838D838D819E81009769F7DB
:1029F00014C06F81788589859A850E944900DC0121
:102A0000CB019E838D838D819E819A838983898169
:102A10009A810197F1F79A83898386E00E94F00EEC
:102A2000E8960FB6F894DEBF0FBECDBFCF91DF9111
:102A30000895DF93CF9300D00F92CDB7DEB79B837D
:102A40008A8319820EC08981282F30E08A819B8178
:102A5000FC01E20FF31F80810E94741189818F5F56
:102A600089838981282F30E08A819B81FC01E20FD4
:102A7000F31F8081882339F70F900F900F90CF912B
:102A8000DF910895DF93CF9300D00F92CDB7DEB7DB
:102A90009B838A8319820EC08981282F30E08A8126
:102AA0009B81FC01E20FF31F80810E942C08898129
:102AB0008F5F89838981282F30E08A819B81FC0187
:102AC000E20FF31F8081882339F70F900F900F904A
:102AD000CF91DF910895DF93CF9300D000D00F9274
:102AE000CDB7DEB78A836B838A81282F30E03D83A0
:102AF0002C838C819D8181309105C1F02C813D8199
:102B0000223031052CF48C819D81009761F019C031
:102B10002C813D812230310569F08C819D8183308B
:102B2000910561F00EC08B8189830BC08B81805C25
:102B3000898307C08B81805F898303C08B81805B21
:102B40008983898180680E9417070F900F900F90EA
:102B50000F900F90CF91DF910895DF93CF9300D026
:102B600000D0CDB7DEB789836A835C834B838981CC
:102B70006A810E946B158B819C810E9442150F9087
:102B80000F900F900F90CF91DF910895DF93CF9327
:102B9000CDB7DEB762970FB6F894DEBF0FBECDBFDC
:102BA0009A8B898B89899A899E012F5F3F4FB90142
:102BB0004AE050E00E94BB1ECE0101960E944215E1
:102BC00062960FB6F894DEBF0FBECDBFCF91DF91F6
:102BD0000895DF93CF93CDB7DEB781E00E9417074A
:102BE000CF91DF910895DF93CF93CDB7DEB781E02A
:102BF0000E94F00ECF91DF910895DF93CF93CDB770
:102C0000DEB762970FB6F894DEBF0FBECDBF9A8BCA
:102C1000898B89899A899E012F5F3F4FB9014AE0CC
:102C200050E00E94BB1ECE0101960E9419156296CB
:102C30000FB6F894DEBF0FBECDBFCF91DF910895E0
:102C4000DF93CF9300D000D00F92CDB7DEB78A8349
:102C50006B838A81282F30E03D832C838C819D817A
:102C600081309105C1F02C813D81223031052CF459
:102C70008C819D81009761F019C02C813D812230AB
:102C8000310569F08C819D818330910561F00EC022
:102C90008B8189830BC08B81805C898307C08B818A
:102CA000805F898303C08B81805B89838981806891
:102CB0000E94F00E0F900F900F900F900F90CF91F9
:102CC000DF910895DF93CF9300D000D0CDB7DEB76A
:102CD0008B836C8380E8898380EC8A838B81282FA7
:102CE00030E0CE010196FC01E20FF31F90818C8150
:102CF000890F0E94F00E0F900F900F900F90CF91C0
:102D0000DF910895DF93CF9300D000D000D0CDB7EE
:102D1000DEB7EFE5F0E080E880831E821D820E942E
:102D20000F130E941A1A0E94AE1A81E061E00E94FD
:102D3000F31A80E690E00E94191580E06AE00E9494
:102D400020168091BA018737F1F487E70E94411A73
:102D500081E063E040E00E94B51C81E064E041E076
:102D60000E94B51C81E065E040E00E94B51C81E056
:102D700066E041E00E94B51C8CE690E00E941915C7
:102D80001092BA015CC08091BA018136D9F481E019
:102D900065E040E00E94B51C81E066E041E00E94F1
:102DA000B51C81E063E040E00E94B51C81E064E076
:102DB00040E00E94B51C84E790E00E941915109233
:102DC000BA013DC08091BA018337D9F481E063E054
:102DD00040E00E94B51C81E064E040E00E94B51C28
:102DE00081E065E040E00E94B51C81E066E040E0E3
:102DF0000E94B51C8BE790E00E9419151092BA0151
:102E00001EC08091BA018436D1F481E063E040E0D5
:102E10000E94B51C81E064E041E00E94B51C81E0A5
:102E200065E040E00E94B51C81E066E040E00E9461
:102E3000B51C82E890E00E9419151092BA0181E059
:102E400060E00E9420168AE890E00E94191582E056
:102E50000E94BC1ACC01A0E0B0E089839A83AB83C6
:102E6000BC8389819A81AB81BC812EEE32E040E047
:102E700050E0BC01CD010E943E1EDC01CB01BC0133
:102E8000CD010E94A904DC01CB01BC01CD0120E0F1
:102E900030ED4FEB54E40E941903DC01CB01BC017F
:102EA000CD010E944900DC01CB0189839A83AB8369
:102EB000BC8389819A810E94FD1583E40E9474116C
:102EC00081E069E00E94201680E990E00E941915D7
:102ED00081E06DE00E94201681E00E94BC1A9E8372
:102EE0008D838D819E818436910524F480E090E06D
:102EF0000E94FD158D819E810E94FD158091BA0171
:102F0000843709F098C089819A819093B4018093A5
:102F1000B3011092B6011092B50130C08091B30197
:102F20009091B4012AE030E0B9010E945D1E9093B7
:102F3000BC018093BB012091B5013091B601809115
:102F4000BB019091BC01F901E255FE4F8083809155
:102F5000B3019091B4012AE030E0B9010E945D1EF6
:102F6000CB019093B4018093B3018091B50190910E
:102F7000B60101969093B6018093B5018091B50199
:102F80009091B601843091054CF283E090E09093EB
:102F9000B6018093B5011CC08091B5019091B60136
:102FA000FC01E255FE4F8081882349F08091B501F4
:102FB0009091B6019093BE018093BD010FC08091A6
:102FC000B5019091B60101979093B6018093B50138
:102FD0008091B5019091B6019923F4F685E990E0CE
:102FE0000E94851A8091BD019091BE019093B60117
:102FF0008093B50113C08091B5019091B601FC0199
:10300000E255FE4F80810E945B1A8091B50190913C
:10301000B60101979093B6018093B5018091B501F7
:103020009091B60199233CF782EA90E00E94851ABC
:103030008AE78093BA018091BA01843509F098C07B
:1030400089819A819093B4018093B3011092B60163
:103050001092B50130C08091B3019091B4012AE083
:1030600030E0B9010E945D1E9093BC018093BB01CA
:103070002091B5013091B6018091BB019091BC01C6
:10308000F901E255FE4F80838091B3019091B40124
:103090002AE030E0B9010E945D1ECB019093B4019B
:1030A0008093B3018091B5019091B6010196909300
:1030B000B6018093B5018091B5019091B60184303D
:1030C00091054CF283E090E09093B6018093B501B6
:1030D0001CC08091B5019091B601FC01E255FE4FF4
:1030E0008081882349F08091B5019091B601909339
:1030F000BE018093BD010FC08091B5019091B601D2
:1031000001979093B6018093B5018091B50190919C
:10311000B6019923F4F685E990E00E94851A809122
:10312000BD019091BE019093B6018093B50113C08B
:103130008091B5019091B601FC01E255FE4F80816E
:103140000E945B1A8091B5019091B601019790930E
:10315000B6018093B5018091B5019091B601992394
:103160003CF784EA90E00E94851A8AE78093BA01CE
:103170008091BA01873609F098C08D819E81909325
:10318000B9018093B8011092B6011092B50130C018
:103190008091B8019091B9012AE030E0B9010E9414
:1031A0005D1E9093BC018093BB012091B5013091CD
:1031B000B6018091BB019091BC01F901E255FE4F2F
:1031C00080838091B8019091B9012AE030E0B90183
:1031D0000E945D1ECB019093B9018093B80180914C
:1031E000B5019091B60101969093B6018093B50117
:1031F0008091B5019091B601843091054CF283E045
:1032000090E09093B6018093B5011CC08091B50108
:103210009091B601FC01E255FE4F8081882349F070
:103220008091B5019091B6019093BE018093BD014C
:103230000FC08091B5019091B60101979093B601AE
:103240008093B5018091B5019091B6019923F4F670
:1032500080E990E00E94851A8091BD019091BE01A5
:103260009093B6018093B50113C08091B501909100
:10327000B601FC01E255FE4F80810E945B1A8091ED
:10328000B5019091B60101979093B6018093B50175
:103290008091B5019091B60199233CF782EA90E0C4
:1032A0000E94851A8AE78093BA018091BA01873417
:1032B00009F043CD8D819E819093B9018093B8012F
:1032C0001092B6011092B50130C08091B801909172
:1032D000B9012AE030E0B9010E945D1E9093BC0163
:1032E0008093BB012091B5013091B6018091BB0163
:1032F0009091BC01F901E255FE4F80838091B801A5
:103300009091B9012AE030E0B9010E945D1ECB0125
:103310009093B9018093B8018091B5019091B60165
:1033200001969093B6018093B5018091B50190917B
:10333000B601843091054CF283E090E09093B601A1
:103340008093B5011CC08091B5019091B601FC013C
:10335000E255FE4F8081882349F08091B50190911C
:10336000B6019093BE018093BD010FC08091B5015D
:103370009091B60101979093B6018093B501809129
:10338000B5019091B6019923F4F680E990E00E948E
:10339000851A8091BD019091BE019093B6018093F2
:1033A000B50113C08091B5019091B601FC01E255C1
:1033B000FE4F80810E945B1A8091B5019091B60109
:1033C00001979093B6018093B5018091B5019091DA
:1033D000B60199233CF784EA90E00E94851A8AE7B7
:1033E0008093BA01AACC1F920F920FB60F921124AC
:1033F0008F93EF93FF93DF93CF93CDB7DEB7ECE2DC
:10340000F0E080818093B7018091B7018A3041F06C
:103410008091B7018D3021F08091B7018093BA017E
:10342000CF91DF91FF91EF918F910F900FBE0F9091
:103430001F901895DF93CF93CDB7DEB7AAE2B0E027
:10344000EAE2F0E0808188608C93AAE2B0E0EAE2F0
:10345000F0E0808180618C93AAE2B0E0EAE2F0E0E3
:10346000808180688C93E0E4F0E086E88083E0E48B
:10347000F0E01082E9E2F0E083E38083CF91DF9116
:103480000895DF93CF930F92CDB7DEB78983ECE237
:10349000F0E089818083EBE2F0E08081829586957F
:1034A0008770882F90E0817090700097A1F30F9043
:1034B000CF91DF910895DF93CF930F92CDB7DEB711
:1034C0008983ECE2F0E08981805D8083EBE2F0E0CB
:1034D0008081829586958770882F90E081709070AA
:1034E0000097A1F30F90CF91DF910895DF93CF93D1
:1034F000CDB7DEB7EBE2F0E080818823DCF7ECE2C9
:10350000F0E08081CF91DF910895DF93CF9300D0D9
:103510000F92CDB7DEB79B838A8319820EC0898153
:10352000282F30E08A819B81FC01E20FF31F80810C
:103530000E94411A89818F5F89838981282F30E019
:103540008A819B81FC01E20FF31F8081882339F778
:103550000F900F900F90CF91DF910895DF93CF934D
:10356000CDB7DEB7E7E2F0E01082E6E2F0E083E814
:103570008083CF91DF910895DF93CF930F92CDB7E2
:10358000DEB78983898187708983A7E2B0E0E7E2AB
:10359000F0E08081807E8C93A7E2B0E0E7E2F0E08B
:1035A00090818981892B8C93A6E2B0E0E6E2F0E07D
:1035B000808180648C93E6E2F0E08081882F90E047
:1035C000807190700097B9F3A6E2B0E0E6E2F0E017
:1035D000808180618C93E4E2F0E0808191810F90A2
:1035E000CF91DF910895DF93CF9300D000D000D02A
:1035F000CDB7DEB789836A838A81813099F5898165
:10360000282F30E03E832D838D819E81813091056E
:10361000D1F02D813E81223031052CF48D819E81A7
:10362000009761F050C02D813E812230310581F03C
:103630008D819E818330910581F045C0EAE3F0E001
:103640008FEF808340C0E7E3F0E08FEF80833BC0E3
:10365000E4E3F0E08FEF808336C0E1E3F0E08FEF4A
:10366000808331C08A81882371F58981282F30E0D9
:103670003C832B838B819C8181309105C9F02B8108
:103680003C81223031052CF48B819C81009761F0C4
:103690001AC02B813C812230310571F08B819C81D5
:1036A0008330910569F00FC0EAE3F0E010820BC0AF
:1036B000E7E3F0E0108207C0E4E3F0E0108203C02B
:1036C000E1E3F0E0108226960FB6F894DEBF0FBE5D
:1036D000CDBFCF91DF910895DF93CF9300D000D07D
:1036E000CDB7DEB789836A838981282F30E03C8398
:1036F0002B838B819C8181309105D1F02B813C8182
:10370000223031052CF48B819C81009761F01EC022
:103710002B813C812230310581F08B819C8183306B
:10372000910581F013C0EBE3F0E08A8180830EC045
:10373000E8E3F0E08A81808309C0E5E3F0E08A8174
:10374000808304C0E2E3F0E08A8180830F900F90D1
:103750000F900F90CF91DF910895DF93CF93CDB766
:10376000DEB727970FB6F894DEBF0FBECDBF8983B3
:103770006A834B838981843008F0EEC08A81883067
:1037800008F0EAC08B81813009F06FC08981282F51
:1037900030E03F832E838E819F818130910549F1F6
:1037A0002E813F81223031052CF48E819F8100973C
:1037B00061F0D2C02E813F812230310571F18E81BE
:1037C0009F8183309105E9F1C7C0AAE3B0E0EAE345
:1037D000F0E08081482F8A81282F30E081E090E05E
:1037E000022E02C0880F991F0A94E2F7842B8C9353
:1037F000B3C0A7E3B0E0E7E3F0E08081482F8A811F
:10380000282F30E081E090E0022E02C0880F991F3F
:103810000A94E2F7842B8C939FC0A4E3B0E0E4E326
:10382000F0E08081482F8A81282F30E081E090E00D
:10383000022E02C0880F991F0A94E2F7842B8C9302
:103840008BC0A1E3B0E0E1E3F0E08081482F8A8102
:10385000282F30E081E090E0022E02C0880F991FEF
:103860000A94E2F7842B8C9377C08B81882309F02C
:1038700073C08981282F30E03D832C838C819D810A
:103880008130910559F12C813D81223031052CF494
:103890008C819D81009769F05FC02C813D81223031
:1038A000310589F18C819D818330910509F440C0F7
:1038B00053C0AAE3B0E0EAE3F0E08081482F8A81B8
:1038C000282F30E081E090E0022E02C0880F991F7F
:1038D0000A94E2F7809584238C933EC0A7E3B0E07E
:1038E000E7E3F0E08081482F8A81282F30E081E0F3
:1038F00090E0022E02C0880F991F0A94E2F780958B
:1039000084238C9329C0A4E3B0E0E4E3F0E0808159
:10391000482F8A81282F30E081E090E0022E02C0FB
:10392000880F991F0A94E2F7809584238C9314C022
:10393000A1E3B0E0E1E3F0E08081482F8A81282F05
:1039400030E081E090E0022E02C0880F991F0A94B7
:10395000E2F7809584238C9327960FB6F894DEBF08
:103960000FBECDBFCF91DF910895DF93CF93CDB739
:10397000DEB727970FB6F894DEBF0FBECDBF8983A1
:103980006A834B838981843008F0EEC08A81883055
:1039900008F0EAC08B81813009F06FC08981282F3F
:1039A00030E03F832E838E819F818130910549F1E4
:1039B0002E813F81223031052CF48E819F8100972A
:1039C00061F0D2C02E813F812230310571F18E81AC
:1039D0009F8183309105E9F1C7C0ABE3B0E0EBE331
:1039E000F0E08081482F8A81282F30E081E090E04C
:1039F000022E02C0880F991F0A94E2F7842B8C9341
:103A0000B3C0A8E3B0E0E8E3F0E08081482F8A810A
:103A1000282F30E081E090E0022E02C0880F991F2D
:103A20000A94E2F7842B8C939FC0A5E3B0E0E5E312
:103A3000F0E08081482F8A81282F30E081E090E0FB
:103A4000022E02C0880F991F0A94E2F7842B8C93F0
:103A50008BC0A2E3B0E0E2E3F0E08081482F8A81EE
:103A6000282F30E081E090E0022E02C0880F991FDD
:103A70000A94E2F7842B8C9377C08B81882309F01A
:103A800073C08981282F30E03D832C838C819D81F8
:103A90008130910559F12C813D81223031052CF482
:103AA0008C819D81009769F05FC02C813D8122301F
:103AB000310589F18C819D818330910509F440C0E5
:103AC00053C0ABE3B0E0EBE3F0E08081482F8A81A4
:103AD000282F30E081E090E0022E02C0880F991F6D
:103AE0000A94E2F7809584238C933EC0A8E3B0E06B
:103AF000E8E3F0E08081482F8A81282F30E081E0E0
:103B000090E0022E02C0880F991F0A94E2F7809578
:103B100084238C9329C0A5E3B0E0E5E3F0E0808145
:103B2000482F8A81282F30E081E090E0022E02C0E9
:103B3000880F991F0A94E2F7809584238C9314C010
:103B4000A2E3B0E0E2E3F0E08081482F8A81282FF1
:103B500030E081E090E0022E02C0880F991F0A94A5
:103B6000E2F7809584238C9327960FB6F894DEBFF6
:103B70000FBECDBFCF91DF910895DF93CF9300D0DB
:103B800000D00F92CDB7DEB78A836B838A818430F1
:103B900008F06BC08B81883008F067C08A81282FBD
:103BA00030E03D832C834C815D814130510541F1F2
:103BB0008C819D818230910534F42C813D812115C9
:103BC000310561F052C04C815D814230510551F1A7
:103BD0008C819D8183309105B9F147C0E9E3F0E024
:103BE0008081282F30E08B81882F90E0A90102C0CE
:103BF000559547958A95E2F7CA018170898335C04A
:103C0000E6E3F0E08081282F30E08B81882F90E080
:103C1000A90102C0559547958A95E2F7CA018170BE
:103C2000898323C0E3E3F0E08081282F30E08B819B
:103C3000882F90E0A90102C0559547958A95E2F733
:103C4000CA018170898311C0E0E3F0E08081282FF0
:103C500030E08B81882F90E0A90102C055954795EF
:103C60008A95E2F7CA018170898389810F900F904C
:103C70000F900F900F90CF91DF910895629FD00128
:103C8000739FF001829FE00DF11D649FE00DF11D17
:103C9000929FF00D839FF00D749FF00D659FF00DC6
:103CA0009927729FB00DE11DF91F639FB00DE11DB3
:103CB000F91FBD01CF011124089597FB092E072696
:103CC0000AD077FD04D00CD006D000201AF47095ED
:103CD00061957F4F0895F6F7909581959F4F0895D0
:103CE000AA1BBB1B51E107C0AA1FBB1FA617B70722
:103CF00010F0A61BB70B881F991F5A95A9F780953E
:103D00009095BC01CD0108952F923F924F925F9202
:103D10006F927F928F929F92AF92BF92CF92DF92DB
:103D2000EF92FF920F931F93CF93DF93CDB7DEB740
:103D3000CA1BDB0B0FB6F894DEBF0FBECDBF0994D4
:103D40002A88398848885F846E847D848C849B842B
:103D5000AA84B984C884DF80EE80FD800C811B8139
:103D6000AA81B981CE0FD11D0FB6F894DEBF0FBE68
:103D7000CDBFED010895FB019F01E8944230C4F0EE
:103D80004532B4F44A3029F497FB1EF4909581959E
:103D90009F4F642F77270E94701E805D8A330CF03E
:103DA000895D8193CB010097A1F716F45DE25193F1
:103DB0001082C9010C94DC1EDC01FC01672F71919B
:103DC0007723E1F7329704C07C916D937083629101
:0C3DD000AE17BF07C8F30895F894FFCFAA
:103DDC00446972656374696F6E3D2000466F72773B
:103DEC00617264004C65667420200053746F7020FF
:103DFC002000526967687420200054656D703D0086
:103E0C004761733D0074656D7065726174757265A0
:103E1C003D000A000D000000000000000000000141
:103E2C00020203030303040404040404040405054C
:103E3C000505050505050505050505050505060624
:103E4C000606060606060606060606060606060606
:103E5C0006060606060606060606060606060707F4
:103E6C0007070707070707070707070707070707D6
:103E7C0007070707070707070707070707070707C6
:103E8C0007070707070707070707070707070707B6
:103E9C0007070707070707070707070707070808A4
:103EAC000808080808080808080808080808080886
:103EBC000808080808080808080808080808080876
:103ECC000808080808080808080808080808080866
:103EDC000808080808080808080808080808080856
:103EEC000808080808080808080808080808080846
:103EFC000808080808080808080808080808080836
:103F0C000808080808080808080808080808080825
:103F1C0008080808080808080808080808080A0A11
:023F2C000A0A7F
:00000001FF
